:020000040800F2
:100000003005002001010008090100080B0100086B
:100010000D0100080F010008110100080000000098
:1000200000000000000000000000000013010008B4
:100030001501000800000000170100081901000860
:100040001B0100081B0100081B0100081B01000820
:100050001B0100081B0100081B0100081B01000810
:100060001B0100081B0100081B0100081B01000800
:100070001B0100081B0100081B0100081B010008F0
:100080001B0100081B0100081B0100081B010008E0
:100090001B0100081B0100081B0100081B010008D0
:1000A0001B0100081B0100081B0100081B010008C0
:1000B0001B0100081B0100081B0100081B010008B0
:1000C0001B0100081B0100081B0100081B010008A0
:1000D0001B0100089D0900080D0A00081B0100080B
:1000E0001B0100081B0100081B010008DFF80CD0F1
:1000F00000F03CF8004800473D12000830050020A1
:100100000648804706480047FEE7FEE7FEE7FEE7B1
:10011000FEE7FEE7FEE7FEE7FEE7FEE7650800080C
:10012000ED000008D2B201E000F8012B491EFBD21D
:1001300070470022F6E710B513460A4604461946F2
:10014000FFF7F0FF204610BD30B505462A460B46A6
:1001500012F8010B13F8014B08B1A042F8D01CB102
:10016000002802D06D1CF1E7284630BD064C074D33
:1001700006E0E06840F0010394E807009847103477
:10018000AC42F6D3FFF7B6FF7012000890120008D9
:100190002DE9F04107460D4614461E464FF0000873
:1001A000384600F02FFE304600F03AFF174918A0FD
:1001B00000F06EFD7DB174B129461448FFF7C4FF0D
:1001C00020B921461148FFF7BFFF08B1012000E028
:1001D0000020804614E04DB129460C48FFF7B4FFDB
:1001E00008B1012000E00020804609E044B121462A
:1001F0000648FFF7A9FF08B1012000E00020804673
:1002000000F0EAFD4046BDE8F08100002800002033
:100210003E2025730D0A000010B51021504800F053
:1002200014FA012806D14F4981F882004EA000F04F
:100230002FFD10BD89E054480078052813D2DFE86F
:1002400000F003132A4158004FF4FA7300224FA123
:1002500050A0FFF79DFF514908700846007810B183
:100260000120494908706FE04FF4FA73002247A15A
:100270004BA0FFF78DFF4FF4FA7344A24CA150A09E
:10028000FFF786FF454908700846007810B1022044
:100290003D49087058E04FF4FA7300223BA14BA08F
:1002A000FFF776FF4FF4FA7338A24DA150A0FFF785
:1002B0006FFF3A4908700846007810B103203249B0
:1002C000087041E04FF4FA7330A24CA14EA0FFF742
:1002D0005FFF4FF4FA732DA248A14EA0FFF758FF1D
:1002E0002E4908700846007810B10420264908708D
:1002F00000BF4FF4FA73002224A149A0FFF748FF82
:100300004FF4FA7321A24BA14FA0FFF741FF2349FD
:1003100008700846007828B1642300221BA14DA074
:10032000FFF736FF00BF10210D4800F08EF90128BD
:10033000F9D105201449087001200A4981F882008A
:1003400009A000F0A5FC00BF00BF0F4800780528F9
:100350007FF471AF00200C49087000BF69E700000E
:1003600000080140280000203E20626C7565746F13
:100370006F746820636F6E6E65637420737563635A
:100380006573730D0A000000000000204F4B0D0A3A
:100390000000000041540D0A000000000100002090
:1003A00041542B4E414D453D48432D30350D0A00FB
:1003B0002B4E414D453A48432D30350D0A00000083
:1003C00041542B4E414D453F0D0A000041542B50E6
:1003D0005357443D2231323334220D0A00000000CD
:1003E0002B505357443A313233340D0A0000000089
:1003F00041542B505357443F0D0A00002B524F4C91
:10040000453A300D0A00000041542B524F4C453DF7
:10041000300D0A0041542B524F4C453F0D0A00004D
:1004200041542B554152543D33383430302C302C0C
:10043000300D0A002B554152543A33383430302CA9
:10044000302C300D0A00000041542B554152543FCE
:100450000D0A000041542B52455345540D0A00002B
:1004600010B5002400F09EFC012800D010BD00F063
:100470008BFD0446032C06D0042C0DD0052C14D083
:10048000062C25D11BE000220321144800F0E6F8D9
:1004900013A000F0FDFB1BE0012203210F4800F038
:1004A000DDF812A000F0F4FB12E000224FF48051BE
:1004B000114800F0D3F811A000F0EAFB08E0012297
:1004C00011030D4800F0CAF80FA000F0E1FB00BFD7
:1004D00000BF00F081FC00BFC8E700000008014039
:1004E0006C6564206F6E0D0A000000006C6564206E
:1004F0006F66660D0A000000000C014062757A7A92
:100500006572206F6E0D0A0062757A7A6572206FCF
:1005100066660D0A0000000010B500F089FC00F0CE
:100520005BFC00F045FC0020014981F8820010BD11
:10053000280000202DE9F041024600250026002079
:1005400000230024002791F803C00CF00F0591F858
:1005500003C00CF0100CBCF1000F03D091F802C0E6
:100560004CEA050591F800C0BCF1000F31D01468C9
:1005700000202BE04FF0010C0CFA00F3B1F800C0A2
:100580000CEA03069E4220D183004FF00F0C0CFAB8
:1005900003F7BC4305FA03FC4CEA040491F803C0DA
:1005A000BCF1280F06D14FF0010C0CFA00FCC2F888
:1005B00014C00AE091F803C0BCF1480F05D14FF018
:1005C000010C0CFA00FCC2F810C0401C0828D1D362
:1005D0001460B1F800C0BCF1FF0F34DD5468002096
:1005E0002EE000F1080C4FF0010808FA0CF3B1F806
:1005F00000C00CEA03069E4221D183004FF00F0C8D
:100600000CFA03F7BC4305FA03FC4CEA040491F826
:1006100003C0BCF1280F05D100F1080C08FA0CF852
:10062000C2F8148091F803C0BCF1480F07D100F163
:10063000080C4FF0010808FA0CF8C2F81080401CB2
:100640000828CED35460BDE8F081024600209368AC
:100650000B400BB1012000E0002070470AB101619E
:1006600000E041617047000029B1064AD2690243A7
:10067000044BDA6104E0034AD2698243014BDA6138
:10068000704700000010024029B1064A92690243F7
:10069000044B9A6104E0034A92698243014B9A61D8
:1006A000704700000010024030B5002100220024F5
:1006B00000232D4D6D6805F00C0121B1042905D0F2
:1006C000082923D105E0294D056022E0274D05606A
:1006D0001FE0254D6D6805F47012234D6D6805F41B
:1006E0008034022505EB92421CB9214D554305602B
:1006F0000BE01D4D6D6805F400351DB11C4D5543D3
:10070000056002E0194D5543056002E0174D056094
:1007100000BF00BF144D6D6805F0F0010909154DCB
:100720006B5C0568DD4045600F4D6D6805F4E06168
:10073000090A104D6B5C4568DD4085600A4D6D68A7
:1007400005F46051C90A0B4D6B5C4568DD40C5601E
:10075000054D6D6805F44041890B074D6B5CC5681C
:10076000B5FBF3F5056130BD0010024000127A00C0
:1007700000093D00020000201200002010B500F02A
:1007800001F810BD0CB500200190009033480068BE
:1007900040F480303149086000BF3048006800F400
:1007A000003000900198401C0190009818B9019801
:1007B000B0F5A06FF1D12948006800F4003010B105
:1007C0000120009001E0002000900098012843D112
:1007D0002348006840F0100021490860084600687E
:1007E00020F0030008600846006840F0020008603E
:1007F0001A484068194948600846406848600846F9
:10080000406840F4806048600846406820F47C10EE
:1008100048600846406840F4E810486008460068B0
:1008200040F08070086000BF0C48006800F0007065
:100830000028F9D00948406820F0030007494860C3
:100840000846406840F00200486000BF0348406826
:1008500000F00C000828F9D10CBD00000010024087
:100860000020024010B51348006840F00100114913
:10087000086008464068104908400E49486008462C
:1008800000680E4908400B4908600846006820F4DB
:10089000802008600846406820F4FE0048604FF45D
:1008A0001F008860FFF76AFF4FF00060044908608E
:1008B00010BD0000001002400000FFF8FFFFF6FE30
:1008C00008ED00E0CA430282704721B1028842F07D
:1008D0000102028004E002884FF6FE731A40028093
:1008E00070478182704702460020138A0B400BB18B
:1008F000012000E000207047002202881D4B984232
:100900000ED01D4B98420BD0B0F1804F08D01B4B3E
:10091000984205D01A4B984202D01A4B984204D103
:100920004FF68F731A404B881A43174B984207D0E3
:10093000164B984204D04FF6FF431A40CB881A4317
:1009400002808B8883850B8803850A4B98420BD0E5
:10095000094B984208D00E4B984205D00D4B984257
:1009600002D00D4B984201D10B7A0386012383827A
:1009700070470000002C014000340140000400409A
:1009800000080040000C004000100040001400402F
:1009900000400140004401400048014010B50024DF
:1009A00040F22551174800F0AEF840B340F225510F
:1009B000144800F080F8134800F060F9C4B21248FF
:1009C000C07A38B9552C05D00F480021016041602C
:1009D000816010BD0C48C07A042808D1002240F282
:1009E0002551084800F0B9F80120074988720648E7
:1009F000C17AC07A401C044AD0721046445400BFE9
:100A0000E7E70000003801401C00002010B500247A
:100A100040F22551214800F076F801283BD140F200
:100A200025511E4800F047F81C4800F027F9C4B2D1
:100A30001B4890F8820010B101282BD10BE0184818
:100A400090F8801090F88000401C154A82F88000D1
:100A5000104644541EE0124890F8800020B9552CEE
:100A600002D000F0B9F910BD002240F225510B4828
:100A700000F073F801200A4981F88100084690F8D7
:100A8000801090F88000401C054A82F880001046D3
:100A9000445400BF00BF00BFE5E700000044004031
:100AA0002800002001F40072B2F5007F00D100BFE1
:100AB000CA430280704710B50022002340F66A1432
:100AC000A14200D100BF0A1201249440A3B2DC432A
:100AD000048010BD21B1828942F40052828104E079
:100AE00082894DF6FF731A408281704702460020CA
:100AF000B1F5007F00D100BF13880B400BB101207E
:100B000000E00020704770B5024600240023002555
:100B1000002040F66A16B14200D100BFC1F3421571
:100B200001F01F03012606FA03F3012D02D1968975
:100B3000334006E0022D02D1168A334001E0968A46
:100B400033400C12012606FA04F41688344013B11F
:100B50000CB1012000E0002070BDF0B50346002478
:100B600000260025002040F66A17B94200D100BFD8
:100B70001846C1F3421401F01F06012707FA06F5D3
:100B8000012C01D10C3004E0022C01D1103000E026
:100B900014301AB107682F43076002E00768AF43BB
:100BA0000760F0BD2DE9F04786B005460E460024EB
:100BB000A24600BFA1460027B08900B100BF2F4662
:100BC0002C8A4CF6FF700440F08804432C82AC89D8
:100BD0004EF6F3100440B088318908437189084308
:100BE0000443AC81AC8A4FF6FF400440B089044313
:100BF000AC8201A8FFF758FD1F48874202D1DDF8FB
:100C000010A001E0DDF80CA0A88900F4004040B17C
:100C10000AEBCA0000EB0A1031684900B0FBF1F89A
:100C200007E00AEBCA0000EB0A1031688900B0FB4C
:100C3000F1F86420B8FBF0F004012009642101FB05
:100C40001089A88900F4004040B1322000EBC900AF
:100C5000B0FBF1F000F00700044308E0322000EBA5
:100C600009106421B0FBF1F000F00F0004432C8167
:100C700006B0BDE8F08700000038014001468888D2
:100C8000C0F308007047C1F308028280704700007B
:100C90000FB4054B10B503A9044A029800F017F8E9
:100CA00010BC5DF814FB00001112000818000020B1
:100CB00002E008C8121F08C1002AFAD17047704725
:100CC000002001E001C1121F002AFBD170472DE96D
:100CD000F84F9946924688460546002706E02528A3
:100CE0000AD051464A4690476D1C7F1C2878002840
:100CF000F5D13846BDE8F88F002315F8011F1846D6
:100D00002E2915D115F8011F04232A290DD06FF0C3
:100D10002F022978A1F13004092C09D800EB8000BA
:100D200002EB400008446D1CF3E758F8040B6D1CFF
:100D30002A78002ADDD0632A07D0732A0FD0104604
:100D400051464A4690477F1C2AE018F8042B8DF83C
:100D5000002000218DF801106E46012103E058F8B3
:100D6000046B4FF0FF315A074FF0000401D409E043
:100D7000641C84420BDA8C42FADB325D002AF7D124
:100D800005E0641C8C42FCDB305D0028F9D127446F
:100D900004E016F8010B51464A469047641EF8D20B
:100DA0006D1CA3E7014890F88100704728000020DF
:100DB00008B50020009028208DF803001020ADF821
:100DC000000001210420FFF75FFC69460148FFF79E
:100DD000B1FB08BD0008014010B580210748FFF7AE
:100DE000A8F90020054981F8810081F880000122DE
:100DF00040F225510248FFF7B0FE10BD2800002048
:100E00000044004010B504460BE014F8011B0748ED
:100E1000FFF739FF00BF80210448FFF767FE002875
:100E2000F9D020780028F0D110BD00000044004027
:100E30002DE9F04186B000200590019002900390CA
:100E4000049001210420FFF71FFC01214804FFF753
:100E50000BFC4FF4164001900020ADF80800ADF8EF
:100E60000A00ADF80C00ADF810000C20ADF80E0033
:100E700001A94048FFF796FE012240F225513D4866
:100E8000FFF76BFE052002463B4B19684FF6FF0348
:100E900019403A4B0B4343EA0221374B196000BF1C
:100EA000262000F01F02012191404209920002F128
:100EB000E022C2F8001100BF052200242546134697
:100EC000C3F1070CBCF1040F02D94FF0040C01E090
:100ED000C3F1070C674603F1040CBCF1070F02D203
:100EE0004FF0000C01E0A3F1030C66464FF0010C3B
:100EF0000CFA07FCACF1010C0CEA040C0CFA06FC31
:100F00004FF0010808FA06F8A8F1010808EA0508F8
:100F10004CEA080100BF002808DA0A07140E164A36
:100F20000C3200F00F031B1FD45403E00A07130E0A
:100F3000134A135400BF01210E48FFF7CBFD0820D0
:100F4000ADF8140004208DF8170005A90D48FFF72F
:100F5000F1FA0420ADF8140003208DF816001820D3
:100F60008DF8170005A90748FFF7E4FA06B0BDE8B9
:100F7000F0810000004400400CED00E00000FA05A4
:100F800000E400E0000801400021164840780228F3
:100F900001D00120704713488078012802D0022830
:100FA0001AD10CE00F48C078012801D1032105E0D7
:100FB0000C48C07808B9042100E002210EE009487D
:100FC000C078012801D1052105E00648C07808B99C
:100FD000062100E0022101E0022100BF00BF084617
:100FE000D8E700002800002008B501210820FFF7FD
:100FF0004BFB4FF48050ADF8000010208DF803003B
:1010000003208DF8020069460448FFF793FA012295
:1010100011030248FFF722FB08BD0000000C01404D
:101020003EB5044600200090019002900121084640
:10103000FFF71AFB0020ADF80600ADF8020041F6FC
:101040001F40ADF8000004EB84004FF6FF7101EA89
:101050004000ADF8040069464FF08040FFF74CFCBB
:1010600001218807FFF73DFC01218807FFF72AFCD3
:1010700001218807FFF729FC00BF01218807FFF73E
:1010800032FC0028F9D001218807FFF71BFC002162
:101090004FF08040FFF719FC3EBD000008B500206E
:1010A000009010208DF803004FF6FF70ADF800009F
:1010B00003208DF8020001210420FFF7E5FA6946BC
:1010C0000148FFF737FA08BD000801402DE9F0415B
:1010D00086B00020059001900290039004900121B9
:1010E0008803FFF7D1FA4FF4E13001900020ADF80A
:1010F00010000C20ADF80E000020ADF80C00ADF88B
:101100000A00ADF8080001A93D48FFF74BFD40F289
:1011100025513B48FFF7CFFC012240F225513848CA
:10112000FFF71BFD252000F01F020121914042091D
:10113000920002F1E022C2F8001100BF0522002453
:1011400025461346C3F1070CBCF1040F02D94FF03A
:10115000040C01E0C3F1070C674603F1040CBCF179
:10116000070F02D24FF0000C01E0A3F1030C66461A
:101170004FF0010C0CFA07FCACF1010C0CEA040C6A
:101180000CFA06FC4FF0010808FA06F8A8F101086D
:1011900008EA05084CEA080100BF002807DA0A0738
:1011A000140E184A00F00F031B1FD45403E00A0763
:1011B000130E154A135400BF01211148FFF78AFC92
:1011C00001210420FFF760FA48208DF817004FF442
:1011D0008060ADF8140005A90C48FFF7ABF91820A2
:1011E0008DF817004FF40070ADF8140003208DF84F
:1011F000160005A90548FFF79DF906B0BDE8F08186
:101200000038014018ED00E000E400E00008014073
:1012100070B504460D4640210748FFF743FCA1B2D4
:101220000548FFF730FD00BF40210348FFF75EFC93
:101230000028F9D0204670BD00380140FFF72EFF8E
:10124000FFF7D2FEFFF742FFFFF766F9FEF7E4FF74
:1012500003A0FFF71DFD00BFFFF702F9FCE7000048
:1012600068656C6C6F20776F726C640D0A0000000B
:1012700090120008000000201C000000B00C0008C4
:10128000AC1200081C00002014050000C00C00086F
:10129000000000000000010203040102030406072D
:0C12A0000809020406080000000000001D
:04000005080000ED02
:00000001FF
